{
  "contractName": "TruyaToken",
  "abi": [
    {
      "inputs": [],
      "payable": false,
      "stateMutability": "nonpayable",
      "type": "constructor"
    },
    {
      "constant": true,
      "inputs": [],
      "name": "totalSupply",
      "outputs": [
        {
          "internalType": "uint256",
          "name": "",
          "type": "uint256"
        }
      ],
      "payable": false,
      "stateMutability": "view",
      "type": "function"
    }
  ],
  "bytecode": "0x6080604052348015600f57600080fd5b506305f5e1006000819055506084806100296000396000f3fe6080604052348015600f57600080fd5b506004361060285760003560e01c806318160ddd14602d575b600080fd5b60336049565b6040518082815260200191505060405180910390f35b6000548156fea265627a7a7231582094d9fa9d68fdf49e1392832073e7533fa797c9cfb4c17f7643b81ac1a46365c764736f6c63430005100032",
  "source": "pragma solidity ^0.5.1;\n\ncontract TruyaToken {\n    //constructor\n    //set total number of tokens    \n    //read total number of tokens\n    uint256 public totalSupply;\n\n    constructor() public{\n         totalSupply = 100000000;\n    }\n\n   \n}",
  "sourcePath": "/Users/nejitawo/Documents/blockchain/etherium/truyatoken/contracts/TruyaToken.sol",
  "compiler": {
    "name": "solc",
    "version": "0.5.16+commit.9c3226ce.Emscripten.clang"
  },
  "schemaVersion": "3.3.4",
  "updatedAt": "2021-03-15T01:07:53.904Z",
  "networkType": "ethereum",
  "devdoc": {
    "methods": {}
  },
  "userdoc": {
    "methods": {}
  }
}